{
  "contractName": "Student",
  "abi": [
    {
      "inputs": [],
      "stateMutability": "payable",
      "type": "constructor",
      "payable": true
    },
    {
      "inputs": [
        {
          "internalType": "string",
          "name": "_studentId",
          "type": "string"
        },
        {
          "internalType": "string",
          "name": "_studentNIC",
          "type": "string"
        },
        {
          "internalType": "string",
          "name": "_studentFName",
          "type": "string"
        },
        {
          "internalType": "string",
          "name": "_studentLName",
          "type": "string"
        }
      ],
      "name": "createStudent",
      "outputs": [],
      "stateMutability": "nonpayable",
      "type": "function"
    },
    {
      "inputs": [],
      "name": "getCurrentStudentId",
      "outputs": [
        {
          "internalType": "uint32",
          "name": "",
          "type": "uint32"
        }
      ],
      "stateMutability": "view",
      "type": "function",
      "constant": true
    },
    {
      "inputs": [
        {
          "internalType": "uint32",
          "name": "_studentId",
          "type": "uint32"
        }
      ],
      "name": "getStudentDetails",
      "outputs": [
        {
          "internalType": "string",
          "name": "",
          "type": "string"
        },
        {
          "internalType": "string",
          "name": "",
          "type": "string"
        },
        {
          "internalType": "string",
          "name": "",
          "type": "string"
        },
        {
          "internalType": "string",
          "name": "",
          "type": "string"
        },
        {
          "internalType": "uint8",
          "name": "",
          "type": "uint8"
        },
        {
          "internalType": "uint256",
          "name": "",
          "type": "uint256"
        }
      ],
      "stateMutability": "view",
      "type": "function",
      "constant": true
    },
    {
      "inputs": [
        {
          "internalType": "uint32",
          "name": "_studentId",
          "type": "uint32"
        },
        {
          "internalType": "uint8",
          "name": "_lastScore",
          "type": "uint8"
        }
      ],
      "name": "updateStudentLastScore",
      "outputs": [
        {
          "internalType": "bool",
          "name": "",
          "type": "bool"
        }
      ],
      "stateMutability": "nonpayable",
      "type": "function"
    },
    {
      "inputs": [],
      "name": "getHello",
      "outputs": [
        {
          "internalType": "string",
          "name": "",
          "type": "string"
        }
      ],
      "stateMutability": "view",
      "type": "function",
      "constant": true
    },
    {
      "inputs": [
        {
          "internalType": "string",
          "name": "_message",
          "type": "string"
        }
      ],
      "name": "setHello",
      "outputs": [],
      "stateMutability": "nonpayable",
      "type": "function"
    }
  ],
  "bytecode": "0x60806040526040518060400160405280600581526020017f68656c6c6f00000000000000000000000000000000000000000000000000000081525060009080519060200190620000519291906200007a565b506000600160006101000a81548163ffffffff021916908363ffffffff1602179055506200018f565b828054620000889062000159565b90600052602060002090601f016020900481019282620000ac5760008555620000f8565b82601f10620000c757805160ff1916838001178555620000f8565b82800160010185558215620000f8579182015b82811115620000f7578251825591602001919060010190620000da565b5b5090506200010791906200010b565b5090565b5b80821115620001265760008160009055506001016200010c565b5090565b7f4e487b7100000000000000000000000000000000000000000000000000000000600052602260045260246000fd5b600060028204905060018216806200017257607f821691505b602082108114156200018957620001886200012a565b5b50919050565b610d88806200019f6000396000f3fe608060405234801561001057600080fd5b50600436106100625760003560e01c8063321e26651461006757806338df095014610083578063435ffe94146100b35780638da9b772146100cf578063c5a4b01d146100ed578063eabf86c61461010b575b600080fd5b610081600480360381019061007c91906108e4565b610140565b005b61009d60048036038101906100989190610a30565b6102a6565b6040516100aa9190610a8b565b60405180910390f35b6100cd60048036038101906100c89190610aa6565b61031c565b005b6100d7610336565b6040516100e49190610b77565b60405180910390f35b6100f56103c8565b6040516101029190610ba8565b60405180910390f35b61012560048036038101906101209190610bc3565b6103e2565b60405161013796959493929190610c18565b60405180910390f35b60006001600081819054906101000a900463ffffffff168092919061016490610cc4565b91906101000a81548163ffffffff021916908363ffffffff160217905550905084600260008363ffffffff16815260200190815260200160002060000190805190602001906101b49291906106e7565b5083600260008363ffffffff16815260200190815260200160002060010190805190602001906101e59291906106e7565b5082600260008363ffffffff16815260200190815260200160002060020190805190602001906102169291906106e7565b5081600260008363ffffffff16815260200190815260200160002060030190805190602001906102479291906106e7565b506000600260008363ffffffff16815260200190815260200160002060040160006101000a81548160ff021916908360ff16021790555042600260008363ffffffff168152602001908152602001600020600501819055505050505050565b600081600260008563ffffffff16815260200190815260200160002060040160006101000a81548160ff021916908360ff16021790555081600260008563ffffffff16815260200190815260200160002060040160006101000a81548160ff021916908360ff1602179055506001905092915050565b80600090805190602001906103329291906106e7565b5050565b60606000805461034590610d20565b80601f016020809104026020016040519081016040528092919081815260200182805461037190610d20565b80156103be5780601f10610393576101008083540402835291602001916103be565b820191906000526020600020905b8154815290600101906020018083116103a157829003601f168201915b5050505050905090565b6000600160009054906101000a900463ffffffff16905090565b606080606080600080600260008863ffffffff168152602001908152602001600020600001600260008963ffffffff168152602001908152602001600020600101600260008a63ffffffff168152602001908152602001600020600201600260008b63ffffffff168152602001908152602001600020600301600260008c63ffffffff16815260200190815260200160002060040160009054906101000a900460ff16600260008d63ffffffff168152602001908152602001600020600501548580546104ae90610d20565b80601f01602080910402602001604051908101604052809291908181526020018280546104da90610d20565b80156105275780601f106104fc57610100808354040283529160200191610527565b820191906000526020600020905b81548152906001019060200180831161050a57829003601f168201915b5050505050955084805461053a90610d20565b80601f016020809104026020016040519081016040528092919081815260200182805461056690610d20565b80156105b35780601f10610588576101008083540402835291602001916105b3565b820191906000526020600020905b81548152906001019060200180831161059657829003601f168201915b505050505094508380546105c690610d20565b80601f01602080910402602001604051908101604052809291908181526020018280546105f290610d20565b801561063f5780601f106106145761010080835404028352916020019161063f565b820191906000526020600020905b81548152906001019060200180831161062257829003601f168201915b5050505050935082805461065290610d20565b80601f016020809104026020016040519081016040528092919081815260200182805461067e90610d20565b80156106cb5780601f106106a0576101008083540402835291602001916106cb565b820191906000526020600020905b8154815290600101906020018083116106ae57829003601f168201915b5050505050925095509550955095509550955091939550919395565b8280546106f390610d20565b90600052602060002090601f016020900481019282610715576000855561075c565b82601f1061072e57805160ff191683800117855561075c565b8280016001018555821561075c579182015b8281111561075b578251825591602001919060010190610740565b5b509050610769919061076d565b5090565b5b8082111561078657600081600090555060010161076e565b5090565b6000604051905090565b600080fd5b600080fd5b600080fd5b600080fd5b6000601f19601f8301169050919050565b7f4e487b7100000000000000000000000000000000000000000000000000000000600052604160045260246000fd5b6107f1826107a8565b810181811067ffffffffffffffff821117156108105761080f6107b9565b5b80604052505050565b600061082361078a565b905061082f82826107e8565b919050565b600067ffffffffffffffff82111561084f5761084e6107b9565b5b610858826107a8565b9050602081019050919050565b82818337600083830152505050565b600061088761088284610834565b610819565b9050828152602081018484840111156108a3576108a26107a3565b5b6108ae848285610865565b509392505050565b600082601f8301126108cb576108ca61079e565b5b81356108db848260208601610874565b91505092915050565b600080600080608085870312156108fe576108fd610794565b5b600085013567ffffffffffffffff81111561091c5761091b610799565b5b610928878288016108b6565b945050602085013567ffffffffffffffff81111561094957610948610799565b5b610955878288016108b6565b935050604085013567ffffffffffffffff81111561097657610975610799565b5b610982878288016108b6565b925050606085013567ffffffffffffffff8111156109a3576109a2610799565b5b6109af878288016108b6565b91505092959194509250565b600063ffffffff82169050919050565b6109d4816109bb565b81146109df57600080fd5b50565b6000813590506109f1816109cb565b92915050565b600060ff82169050919050565b610a0d816109f7565b8114610a1857600080fd5b50565b600081359050610a2a81610a04565b92915050565b60008060408385031215610a4757610a46610794565b5b6000610a55858286016109e2565b9250506020610a6685828601610a1b565b9150509250929050565b60008115159050919050565b610a8581610a70565b82525050565b6000602082019050610aa06000830184610a7c565b92915050565b600060208284031215610abc57610abb610794565b5b600082013567ffffffffffffffff811115610ada57610ad9610799565b5b610ae6848285016108b6565b91505092915050565b600081519050919050565b600082825260208201905092915050565b60005b83811015610b29578082015181840152602081019050610b0e565b83811115610b38576000848401525b50505050565b6000610b4982610aef565b610b538185610afa565b9350610b63818560208601610b0b565b610b6c816107a8565b840191505092915050565b60006020820190508181036000830152610b918184610b3e565b905092915050565b610ba2816109bb565b82525050565b6000602082019050610bbd6000830184610b99565b92915050565b600060208284031215610bd957610bd8610794565b5b6000610be7848285016109e2565b91505092915050565b610bf9816109f7565b82525050565b6000819050919050565b610c1281610bff565b82525050565b600060c0820190508181036000830152610c328189610b3e565b90508181036020830152610c468188610b3e565b90508181036040830152610c5a8187610b3e565b90508181036060830152610c6e8186610b3e565b9050610c7d6080830185610bf0565b610c8a60a0830184610c09565b979650505050505050565b7f4e487b7100000000000000000000000000000000000000000000000000000000600052601160045260246000fd5b6000610ccf826109bb565b915063ffffffff821415610ce657610ce5610c95565b5b600182019050919050565b7f4e487b7100000000000000000000000000000000000000000000000000000000600052602260045260246000fd5b60006002820490506001821680610d3857607f821691505b60208210811415610d4c57610d4b610cf1565b5b5091905056fea2646970667358221220d64d2b7e2cbed61b25c2c6bc5162bfec4fae3dcdac8e0572194d5720121eef8d64736f6c634300080a0033",
  "immutableReferences": {},
  "source": "pragma solidity >=0.4.22 <0.9.0;\r\n\r\n\r\ncontract Student {\r\n    \r\n  // If anything goes wrong the Contract can recover it transaction cost\r\n  // because of the payable constructor\r\n  constructor() public payable {} \r\n\r\n  string helloMessage = \"hello\";\r\n\r\n  // Struct for tracking the student info\r\n  struct StudentInfo {\r\n    string student_Id; // given by the course\r\n    string student_NIC; // real world NIC\r\n    string student_first_name;\r\n    string student_last_name;\r\n    uint8 student_final_score;\r\n    uint256 timestamp;\r\n  }\r\n\r\n  // StudentId given By the contract\r\n  uint32 studentId = 0;\r\n\r\n  // Blockchain generated Id <-> StuentInfo\r\n  mapping(uint=>StudentInfo) studentMap;\r\n\r\n  // Add Student information to the contract memory \r\n  function createStudent(string memory _studentId, string memory _studentNIC, string memory _studentFName, string memory _studentLName) public {\r\n\r\n    uint32 newStudentId = studentId++;\r\n    studentMap[newStudentId].student_Id = _studentId;\r\n    studentMap[newStudentId].student_NIC = _studentNIC;\r\n    studentMap[newStudentId].student_first_name = _studentFName;\r\n    studentMap[newStudentId].student_last_name = _studentLName;\r\n    studentMap[newStudentId].student_final_score = 0;\r\n    studentMap[newStudentId].timestamp = block.timestamp;\r\n\r\n  }\r\n\r\n  // Retrieve the last registered student id\r\n  function getCurrentStudentId() public view returns(uint32) {\r\n    return studentId;\r\n  }\r\n\r\n  // This method will return the Student information related to supplied trailNo\r\n  function getStudentDetails(uint32 _studentId) public view returns (string memory, string memory, string memory, string memory, uint8, uint) {\r\n    return (studentMap[_studentId].student_Id, studentMap[_studentId].student_NIC,\r\n              studentMap[_studentId].student_first_name, studentMap[_studentId].student_last_name,\r\n              studentMap[_studentId].student_final_score, studentMap[_studentId].timestamp);\r\n  }\r\n  \r\n  // Update Student Score\r\n  function updateStudentLastScore(uint32 _studentId, uint8 _lastScore) public returns(bool)  {\r\n      studentMap[_studentId].student_final_score = _lastScore;\r\n      studentMap[_studentId].student_final_score = _lastScore;\r\n      return true;\r\n  }\r\n\r\n  function getHello() public view returns(string memory) {\r\n      return helloMessage;\r\n  }\r\n\r\n  function setHello(string memory _message) public {\r\n      helloMessage = _message;\r\n  }\r\n\r\n}",
  "sourcePath": "C:\\Users\\tudugampal\\Downloads\\ethTest1\\contracts\\Student.sol",
  "compiler": {
    "name": "solc",
    "version": "0.8.10+commit.fc410830.Emscripten.clang"
  },
  "schemaVersion": "3.4.3",
  "updatedAt": "2021-12-12T07:15:53.188Z",
  "networkType": "ethereum",
  "devdoc": {
    "kind": "dev",
    "methods": {},
    "version": 1
  },
  "userdoc": {
    "kind": "user",
    "methods": {},
    "version": 1
  }
}